:020000040800F2
:100000000015002089010008C5010008C70100088B
:10001000C9010008CB010008CD0100080000000064
:10002000000000000000000000000000CF010008F8
:10003000D101000800000000D3010008D50100082C
:10004000D7010008D7010008D7010008D701000830
:10005000D7010008D7010008D7010008D701000820
:10006000D7010008D7010008D7010008D701000810
:10007000D7010008D7010008D7010008D701000800
:10008000D7010008D7010008D7010008D7010008F0
:10009000D7010008D7010008D7010008D7010008E0
:1000A000D7010008D7010008D7010008D7010008D0
:1000B0002D020008D7010008D7010008D701000869
:1000C000D7010008D7010008D7010008D7010008B0
:1000D000D7010008D7010008D7010008D7010008A0
:1000E000D7010008D7010008D7010008D701000890
:1000F000D7010008D7010008D7010008D701000880
:10010000D7010008D7010008D7010008D70100086F
:10011000D7010008D7010008D7010008D70100085F
:10012000D7010008D7010008D7010008D70100084F
:10013000D7010008D7010008D7010008D70100083F
:10014000D7010008D7010008D7010008D70100082F
:10015000D7010008D7010008D7010008D70100081F
:10016000D7010008D7010008D7010008D70100080F
:10017000D7010008D7010008D701000800000000DF
:10018000D7010008D701000816481749174B9942B4
:100190003CBF50F8042B41F8042BF8D314494FF01E
:1001A00000028B4238BF43F8042BFAD3DFF8440037
:1001B000016841F470010160BFF34F8FBFF36F8F8F
:1001C0000D480047FEE7FEE7FEE7FEE7FEE7FEE735
:1001D000FEE7FEE7FEE7FEE708480949094A0A4B41
:1001E000704700001C0300080000002000000020F1
:1001F0000015002088ED00E0150200080000002036
:100200000015002000050020000500207047704701
:10021000704700004FF0020000F018F809484FF056
:10022000100100F019F800F051F8FEE700B500F0F9
:1002300037F85DF804EB044A6FF001011160BFF379
:100240004F8F704700040048100000401C4A11689E
:1002500041EA0001116070474FF00002104402684B
:1002600042EA01024FEA410122EA010202607047BC
:100270001448016841F004010160704712480168A8
:1002800041F48071016070470E48016821F004015B
:10029000016070470C48016821F48071016070476B
:1002A0000848016881F00401016070470648016850
:1002B00081F48071016070470138FDD17047000002
:1002C0004C10024014040048141000480E4A1168F3
:1002D00041F0010111600D4A40F2E73111600C4A12
:1002E0004FF0010111604FF08042116841F00101AF
:1002F0001160084A116841F001011160064A4FF08F
:1003000080511160704700005810024028000040E2
:0C0310002C0000400C00004000E100E068
:0400000508000215D8
:00000001FF
