:020000040800F2
:100000000015002089010008C5010008C70100088B
:10001000C9010008CB010008CD0100080000000064
:10002000000000000000000000000000CF010008F8
:10003000D101000800000000D3010008D50100082C
:10004000D7010008D7010008D7010008D701000830
:10005000D7010008D7010008D7010008D701000820
:10006000D701000867030008D7010008D70100087E
:10007000D7010008D7010008D7010008D701000800
:10008000D7010008D7010008D7010008D7010008F0
:10009000D7010008D7010008D70100087F03000836
:1000A000D7010008D7010008D7010008D7010008D0
:1000B000D7010008D7010008D7010008D7010008C0
:1000C000D7010008D7010008D7010008D7010008B0
:1000D000D7010008D7010008D7010008D7010008A0
:1000E000D7010008D7010008D7010008D701000890
:1000F000D7010008D7010008D7010008D701000880
:10010000D7010008D7010008D7010008D70100086F
:10011000D7010008D7010008D7010008D70100085F
:10012000D7010008D7010008D7010008D70100084F
:10013000D7010008D7010008D7010008D70100083F
:10014000D7010008D7010008D7010008D70100082F
:10015000D7010008D7010008D7010008D70100081F
:10016000D7010008D7010008D7010008D70100080F
:10017000D7010008D7010008D701000800000000DF
:10018000D7010008D701000816481749174B9942B4
:100190003CBF50F8042B41F8042BF8D314494FF01E
:1001A00000028B4238BF43F8042BFAD3DFF8440037
:1001B000016841F470010160BFF34F8FBFF36F8F8F
:1001C0000D480047FEE7FEE7FEE7FEE7FEE7FEE735
:1001D000FEE7FEE7FEE7FEE708480949094A0A4B41
:1001E00070470000340400080000002000000020D8
:1001F0000015002088ED00E0310300080000002019
:100200000015002000050020000500207047704701
:10021000704700003B4A116841F0010111604FF046
:100220009042116840F6FF4021EA00011160364A11
:10023000116840F2554021EA00014FEA400041EACE
:10024000000111607047314A106800F02F007047BC
:100250002F4A116841F0010111602E4A116821F402
:10026000E04111602C4A116841F0080111602B4AED
:10027000116821F008011160294A116841F0080154
:100280001160284A4FF4007111607047204A1168CC
:1002900041F001011160244A116821F00701116049
:1002A0001D4A116841F0010111601C4A116821F0DA
:1002B000010111601A4A116841F001011160194AE7
:1002C0004FF0400111607047114A116841F001017F
:1002D0001160164A116821F0700111600E4A116810
:1002E00041F0200111600D4A116821F020011160D8
:1002F0000B4A116841F0200111600A4A4FF40001D5
:10030000116070474C1002400C000048100000487B
:100310006010024008000140080401400C04014044
:100320000004014000E100E00C0001401000014029
:100330004FF0020000F03EF81B484FF0100100F0B3
:100340003FF8FFF767FFFFF783FF4FF0100000F063
:1003500031F816484FF4803100F032F8FFF75AFFB9
:10036000FFF7B2FFFEE700B500F04EF85DF804EBD2
:100370000F4A4FF008011160BFF34F8F70474FF0E5
:100380001400016801F0200111F0200F0AD100B51E
:1003900000F040F85DF804EB054A4FF020011160D1
:1003A000BFF34F8F70470000000400480010004862
:1003B000140401401C4A116841EA000111607047B1
:1003C0004FF000021044026842EA01024FEA410184
:1003D00022EA0102026070471448016841F00401FA
:1003E000016070471248016841F4807101607047F4
:1003F0000E48016821F00401016070470C48016853
:1004000021F48071016070470848016881F004019F
:10041000016070470648016881F48071016070478F
:100420000138FDD1704700004C1002401404004810
:04043000141000485C
:0400000508000331BB
:00000001FF
