:020000040800F2
:100000000015002089010008C5010008C70100088B
:10001000C9010008CB010008CD0100080000000064
:10002000000000000000000000000000CF010008F8
:10003000D101000800000000D3010008D50100082C
:10004000D7010008D7010008D7010008D701000830
:10005000D7010008D7010008D7010008D701000820
:10006000D7010008D7010008D7010008D701000810
:10007000D7010008D7010008D7010008D701000800
:10008000D7010008D7010008D7010008D7010008F0
:10009000D7010008D7010008D7010008D7010008E0
:1000A000D7010008D7010008D7010008D7010008D0
:1000B000D7010008D7010008D7010008D7010008C0
:1000C000D7010008D7010008D7010008D7010008B0
:1000D000D7010008D7010008D7010008D7010008A0
:1000E000D7010008D7010008D7010008D701000890
:1000F000D7010008D7010008D7010008D701000880
:10010000D7010008D7010008D7010008D70100086F
:10011000D7010008D7010008D7010008D70100085F
:10012000D7010008D7010008D7010008D70100084F
:10013000D7010008D7010008D7010008D70100083F
:10014000D7010008D7010008D7010008D70100082F
:10015000D7010008D7010008D7010008D70100081F
:10016000D7010008D7010008D7010008D70100080F
:10017000D7010008D7010008D701000800000000DF
:10018000D7010008D701000816481749174B9942B4
:100190003CBF50F8042B41F8042BF8D314494FF01E
:1001A00000028B4238BF43F8042BFAD3DFF8440037
:1001B000016841F470010160BFF34F8FBFF36F8F8F
:1001C0000D480047FEE7FEE7FEE7FEE7FEE7FEE735
:1001D000FEE7FEE7FEE7FEE708480949094A0A4B41
:1001E0007047000098030008000000200000002075
:1001F0000015002088ED00E0150200080000002036
:100200000015002000050020000500207047704701
:100210007047000000F026F800F05EF800F054F897
:100220004FF000044FF0000000F035F8364800F0C1
:1002300032F800F049F8354800F02DF800F044F8A5
:100240006FF0D05000F027F800F03EF804F1010400
:100250003C2CEBD100F040F8E2E74FF0000000F05A
:100260001AF8FEE74FF0100000B500F055F82848E6
:10027000016821F0000141F00001016024484FF0C5
:10028000806100F04FF822484FF0804100F04AF8BA
:100290005DF804EB70474FF020011E4A70B44FF434
:1002A00000534FF000544FF400454FF0004610F05B
:1002B000004F0CBF16601560136014604FEA4000D9
:1002C0000139F4D170BC70474FF0000808F1010803
:1002D000B8F1011FFAD1704700B54FF000084FF098
:1002E0000000FFF7D8FF4FF06040FFF7D4FF08F1A0
:1002F0000108B8F13C0FF6D14FF00000FFF7CBFF3B
:100300005DF804EB70470000FF0000E510FF00E51A
:1003100000100048181000481C4A116841EA00010A
:10032000116070474FF000021044026842EA010277
:100330004FEA410122EA0102026070471448016855
:1003400041F00401016070471248016841F4807176
:10035000016070470E48016821F004010160704798
:100360000C48016821F480710160704708480168F9
:1003700081F00401016070470648016881F48071D2
:10038000016070470138FDD1704700004C100240F9
:08039000140400481410004899
:0400000508000215D8
:00000001FF
